:020000040000FA
:020000000A28CC
:080008003128820703340234A1
:1000100000340134831603170510851005110512ED
:10002000851283160313051085108312031705101C
:100030008510831203138B1783120317FF3091006F
:100040008312031792151216921612179214121594
:10005000831603138C14831203138B100B170B16C8
:100060003028F00003088301F1000A08F2008A0139
:10007000831203138C183E288B1048288C10851E81
:100080004828502048288B10851A48285020482896
:10009000830172088A0071088300F00E700E090057
:1000A000051E5628400A0339C00059284003033969
:1000B000C00000308A0040080520C100FC308505E2
:1000C00041088504080083120317051C69280510E0
:0600D0006A280514080077
:02400E00C63FAB
:00000001FF
