:020000040000FA
:020000000A28CC
:080008003028820703340234A2
:1000100000340134831603170510851005110512ED
:10002000851283160313051085108312031705101C
:100030008510831203138B1783120317FF3091006F
:1000400083120317921512169216121712158316A1
:1000500003138C14831203138B100B170B162F280A
:10006000F00003088301F1000A08F2008A018312FC
:1000700003138C184028831203138B1845284A2831
:100080008C10851E4A2852204A288B10851A4A282F
:1000900052204A28830172088A0071088300F00EFA
:1000A000700E0900051E5828400A0339C0005B285D
:1000B00040030339C00000308A0040080520C10019
:1000C000FC30850541088504080083120317051CD0
:0A00D0006B2805106C2805140800C9
:02400E00C63FAB
:00000001FF
