:020000040000FA
:020000003328A3
:080008007528820700342F3433
:100010004A345D346C34793483348C3494349B3476
:10002000A134A734AD34B234B634BB34BF34C33496
:10003000C634CA34CD34D034D334D634D934DB3496
:10004000DE34E034E334E534E734E934EB34ED34E2
:10005000EF34F134F334F534F634F834FA34FB3455
:10006000FD34FE34FF348316031705108510051187
:1000700005128512831203178510051105128512CA
:1000800083160313851005110512851283160313B9
:100090008112811101108110011183120313911338
:1000A0001113911611129213FF308312031791004E
:1000B0008312031792151216921612170330F300CB
:1000C0005A30F4000030F900FB00831203138B1543
:1000D00083120313081083160313081483120313E7
:1000E0000B17831203138B177428F5000308830181
:1000F000F6000A08F7008A01831203138C1862299C
:100100008312031308188F20831203138B1E8A286F
:100110000B19AF20831203130C18092187298316AA
:10012000031381128111011081100111D230831249
:10013000031381008312031308108316031308109E
:10014000831203130B108B1183120313F00D701025
:1001500005187014831203130B118B1608008312F9
:100160000313F00D70100518701483160313811219
:100170008111011081100111993083120313810044
:10018000831203130B118B16F30B0800C72883127D
:1001900003138B120330F300831203138B158312A6
:1001A000031308108316031308147008F800F80CE2
:1001B000780801397902031DE520FA017008013938
:1001C000031D7A147918080008007908013AF9002B
:1001D0008312031779180516791C051271148312FE
:1001E000031311109113111391161112921383120C
:1001F000031300308F009000831603130C14831236
:1002000003131114831203130C10831203178516A2
:100210000800831203130C107118102138210800F4
:1002200083120313111083120317851271107918AA
:100230001C21791C3E210800831203131110911315
:10024000111391121116921311145A30F4000C303C
:10025000FC00FD0083120317FF309000831203138C
:100260008C10831603138C148312031712150800C5
:100270005821FD0B3C295021F40B08008312031771
:10028000051185100C10831203131110831203172C
:100290001211831603138C10831203138C100800A1
:1002A000FC0B5429FC0AFC0A7C08FD005D210800B7
:1002B0000130FE00FF30FF0008000130FF00FF307A
:1002C000FE000800831203171211831203138C100F
:1002D0007B187A296B297F088312031791008312F8
:1002E00003177A1805157A1C85147B1483120317DB
:1002F000121587297E0883120317910083120317B2
:10030000051185107B1083120317121587298301AD
:0E03100077088A0076088300F50E750E090046
:02400E00E63F8B
:00000001FF
